{
  "contractName": "TaskManager",
  "abi": [
    {
      "inputs": [],
      "stateMutability": "nonpayable",
      "type": "constructor"
    },
    {
      "inputs": [],
      "name": "owner",
      "outputs": [
        {
          "internalType": "address",
          "name": "",
          "type": "address"
        }
      ],
      "stateMutability": "view",
      "type": "function",
      "constant": true
    },
    {
      "inputs": [],
      "name": "taskCount",
      "outputs": [
        {
          "internalType": "uint256",
          "name": "",
          "type": "uint256"
        }
      ],
      "stateMutability": "view",
      "type": "function",
      "constant": true
    },
    {
      "inputs": [
        {
          "internalType": "uint256",
          "name": "",
          "type": "uint256"
        }
      ],
      "name": "tasks",
      "outputs": [
        {
          "internalType": "uint256",
          "name": "id",
          "type": "uint256"
        },
        {
          "internalType": "string",
          "name": "description",
          "type": "string"
        },
        {
          "internalType": "bool",
          "name": "completed",
          "type": "bool"
        }
      ],
      "stateMutability": "view",
      "type": "function",
      "constant": true
    },
    {
      "inputs": [
        {
          "internalType": "string",
          "name": "_description",
          "type": "string"
        }
      ],
      "name": "addTask",
      "outputs": [],
      "stateMutability": "nonpayable",
      "type": "function"
    },
    {
      "inputs": [
        {
          "internalType": "uint256",
          "name": "_id",
          "type": "uint256"
        }
      ],
      "name": "completeTask",
      "outputs": [],
      "stateMutability": "nonpayable",
      "type": "function"
    },
    {
      "inputs": [
        {
          "internalType": "uint256",
          "name": "_id",
          "type": "uint256"
        }
      ],
      "name": "getTask",
      "outputs": [
        {
          "internalType": "string",
          "name": "",
          "type": "string"
        },
        {
          "internalType": "bool",
          "name": "",
          "type": "bool"
        }
      ],
      "stateMutability": "view",
      "type": "function",
      "constant": true
    }
  ],
  "bytecode": "0x608060405234801561001057600080fd5b5033600260006101000a81548173ffffffffffffffffffffffffffffffffffffffff021916908373ffffffffffffffffffffffffffffffffffffffff1602179055506000600181905550610c33806100696000396000f3fe608060405234801561001057600080fd5b50600436106100625760003560e01c80631d65e77e1461006757806367238562146100985780638d977672146100b45780638da5cb5b146100e6578063b6cb58a514610104578063e1e2955814610122575b600080fd5b610081600480360381019061007c9190610773565b61013e565b60405161008f9291906108dd565b60405180910390f35b6100b260048036038101906100ad9190610732565b6102a7565b005b6100ce60048036038101906100c99190610773565b6103e6565b6040516100dd93929190610988565b60405180910390f35b6100ee6104b5565b6040516100fb91906108c2565b60405180910390f35b61010c6104db565b604051610119919061096d565b60405180910390f35b61013c60048036038101906101379190610773565b6104e1565b005b606060006001548310610186576040517f08c379a000000000000000000000000000000000000000000000000000000000815260040161017d9061092d565b60405180910390fd5b60008084815481106101c1577f4e487b7100000000000000000000000000000000000000000000000000000000600052603260045260246000fd5b9060005260206000209060030201604051806060016040529081600082015481526020016001820180546101f490610acd565b80601f016020809104026020016040519081016040528092919081815260200182805461022090610acd565b801561026d5780601f106102425761010080835404028352916020019161026d565b820191906000526020600020905b81548152906001019060200180831161025057829003601f168201915b505050505081526020016002820160009054906101000a900460ff1615151515815250509050806020015181604001519250925050915091565b600260009054906101000a900473ffffffffffffffffffffffffffffffffffffffff1673ffffffffffffffffffffffffffffffffffffffff163373ffffffffffffffffffffffffffffffffffffffff1614610337576040517f08c379a000000000000000000000000000000000000000000000000000000000815260040161032e9061094d565b60405180910390fd5b6000604051806060016040528060015481526020018381526020016000151581525090806001815401808255809150506001900390600052602060002090600302016000909190919091506000820151816000015560208201518160010190805190602001906103a8929190610612565b5060408201518160020160006101000a81548160ff0219169083151502179055505050600160008154809291906103de90610aff565b919050555050565b600081815481106103f657600080fd5b906000526020600020906003020160009150905080600001549080600101805461041f90610acd565b80601f016020809104026020016040519081016040528092919081815260200182805461044b90610acd565b80156104985780601f1061046d57610100808354040283529160200191610498565b820191906000526020600020905b81548152906001019060200180831161047b57829003601f168201915b5050505050908060020160009054906101000a900460ff16905083565b600260009054906101000a900473ffffffffffffffffffffffffffffffffffffffff1681565b60015481565b600260149054906101000a900460ff1615610531576040517f08c379a00000000000000000000000000000000000000000000000000000000081526004016105289061090d565b60405180910390fd5b6001600260146101000a81548160ff0219169083151502179055506001548110610590576040517f08c379a00000000000000000000000000000000000000000000000000000000081526004016105879061092d565b60405180910390fd5b6001600082815481106105cc577f4e487b7100000000000000000000000000000000000000000000000000000000600052603260045260246000fd5b906000526020600020906003020160020160006101000a81548160ff0219169083151502179055506000600260146101000a81548160ff02191690831515021790555050565b82805461061e90610acd565b90600052602060002090601f0160209004810192826106405760008555610687565b82601f1061065957805160ff1916838001178555610687565b82800160010185558215610687579182015b8281111561068657825182559160200191906001019061066b565b5b5090506106949190610698565b5090565b5b808211156106b1576000816000905550600101610699565b5090565b60006106c86106c3846109f7565b6109c6565b9050828152602081018484840111156106e057600080fd5b6106eb848285610a8b565b509392505050565b600082601f83011261070457600080fd5b81356107148482602086016106b5565b91505092915050565b60008135905061072c81610be6565b92915050565b60006020828403121561074457600080fd5b600082013567ffffffffffffffff81111561075e57600080fd5b61076a848285016106f3565b91505092915050565b60006020828403121561078557600080fd5b60006107938482850161071d565b91505092915050565b6107a581610a43565b82525050565b6107b481610a55565b82525050565b60006107c582610a27565b6107cf8185610a32565b93506107df818560208601610a9a565b6107e881610bd5565b840191505092915050565b6000610800601383610a32565b91507f5265656e7472616e6379206465746563746564000000000000000000000000006000830152602082019050919050565b6000610840601383610a32565b91507f5461736b20646f6573206e6f74206578697374000000000000000000000000006000830152602082019050919050565b6000610880601c83610a32565b91507f4f6e6c7920746865206f776e65722063616e2063616c6c2074686973000000006000830152602082019050919050565b6108bc81610a81565b82525050565b60006020820190506108d7600083018461079c565b92915050565b600060408201905081810360008301526108f781856107ba565b905061090660208301846107ab565b9392505050565b60006020820190508181036000830152610926816107f3565b9050919050565b6000602082019050818103600083015261094681610833565b9050919050565b6000602082019050818103600083015261096681610873565b9050919050565b600060208201905061098260008301846108b3565b92915050565b600060608201905061099d60008301866108b3565b81810360208301526109af81856107ba565b90506109be60408301846107ab565b949350505050565b6000604051905081810181811067ffffffffffffffff821117156109ed576109ec610ba6565b5b8060405250919050565b600067ffffffffffffffff821115610a1257610a11610ba6565b5b601f19601f8301169050602081019050919050565b600081519050919050565b600082825260208201905092915050565b6000610a4e82610a61565b9050919050565b60008115159050919050565b600073ffffffffffffffffffffffffffffffffffffffff82169050919050565b6000819050919050565b82818337600083830152505050565b60005b83811015610ab8578082015181840152602081019050610a9d565b83811115610ac7576000848401525b50505050565b60006002820490506001821680610ae557607f821691505b60208210811415610af957610af8610b77565b5b50919050565b6000610b0a82610a81565b91507fffffffffffffffffffffffffffffffffffffffffffffffffffffffffffffffff821415610b3d57610b3c610b48565b5b600182019050919050565b7f4e487b7100000000000000000000000000000000000000000000000000000000600052601160045260246000fd5b7f4e487b7100000000000000000000000000000000000000000000000000000000600052602260045260246000fd5b7f4e487b7100000000000000000000000000000000000000000000000000000000600052604160045260246000fd5b6000601f19601f8301169050919050565b610bef81610a81565b8114610bfa57600080fd5b5056fea26469706673582212203701e061b54a460d1dfff2a4c2e5d3fb787a1aab2e82950a8d7c469d86b02f1364736f6c63430008000033",
  "immutableReferences": {},
  "source": "pragma solidity ^0.8.0;\n\ncontract TaskManager {\n    struct Task {\n        uint id;\n        string description;\n        bool completed;\n    }\n\n    Task[] public tasks;\n    uint public taskCount;\n    address public owner;\n    bool private locked;\n\n    constructor() {\n        owner = msg.sender;\n        taskCount = 0;\n    }\n\n    modifier onlyOwner() {\n        require(msg.sender == owner, \"Only the owner can call this\");\n        _;\n    }\n\n    modifier nonReentrant() {\n        require(!locked, \"Reentrancy detected\");\n        locked = true;\n        _;\n        locked = false;\n    }\n\n    function addTask(string memory _description) public onlyOwner {\n        tasks.push(Task(taskCount, _description, false));\n        taskCount++;\n    }\n\n    function completeTask(uint _id) public nonReentrant {\n        require(_id < taskCount, \"Task does not exist\");\n        tasks[_id].completed = true;\n    }\n\n    function getTask(uint _id) public view returns (string memory, bool) {\n        require(_id < taskCount, \"Task does not exist\");\n        Task memory task = tasks[_id];\n        return (task.description, task.completed);\n    }\n}",
  "sourcePath": "/home/nziza/Documents/code/web3/TAskManager/contracts/TaskManager.sol",
  "compiler": {
    "name": "solc",
    "version": "0.8.0+commit.c7dfd78e.Emscripten.clang"
  },
  "schemaVersion": "3.4.16",
  "updatedAt": "2025-03-22T16:22:00.853Z",
  "networkType": "ethereum",
  "devdoc": {
    "kind": "dev",
    "methods": {},
    "version": 1
  },
  "userdoc": {
    "kind": "user",
    "methods": {},
    "version": 1
  }
}